{
  "contractName": "FileStorage",
  "abi": [
    {
      "inputs": [
        {
          "internalType": "string",
          "name": "_name",
          "type": "string"
        },
        {
          "internalType": "string",
          "name": "_hash",
          "type": "string"
        }
      ],
      "name": "uploadFile",
      "outputs": [],
      "stateMutability": "payable",
      "type": "function",
      "payable": true
    },
    {
      "inputs": [],
      "name": "getFile",
      "outputs": [
        {
          "components": [
            {
              "internalType": "string",
              "name": "name",
              "type": "string"
            },
            {
              "internalType": "string",
              "name": "hash",
              "type": "string"
            }
          ],
          "internalType": "struct FileStorage.File[]",
          "name": "",
          "type": "tuple[]"
        }
      ],
      "stateMutability": "view",
      "type": "function",
      "constant": true
    }
  ],
  "bytecode": "0x608060405234801561001057600080fd5b50610764806100206000396000f3fe6080604052600436106100295760003560e01c80632fa816921461002e578063996d50bf14610059575b600080fd5b34801561003a57600080fd5b50610043610075565b6040516100509190610573565b60405180910390f35b610073600480360381019061006e9190610401565b610234565b005b60606000803373ffffffffffffffffffffffffffffffffffffffff1673ffffffffffffffffffffffffffffffffffffffff168152602001908152602001600020805480602002602001604051908101604052809291908181526020016000905b8282101561022b57838290600052602060002090600202016040518060400160405290816000820180546101089061068d565b80601f01602080910402602001604051908101604052809291908181526020018280546101349061068d565b80156101815780601f1061015657610100808354040283529160200191610181565b820191906000526020600020905b81548152906001019060200180831161016457829003601f168201915b5050505050815260200160018201805461019a9061068d565b80601f01602080910402602001604051908101604052809291908181526020018280546101c69061068d565b80156102135780601f106101e857610100808354040283529160200191610213565b820191906000526020600020905b8154815290600101906020018083116101f657829003601f168201915b505050505081525050815260200190600101906100d5565b50505050905090565b600060405180604001604052808481526020018381525090506000803373ffffffffffffffffffffffffffffffffffffffff1673ffffffffffffffffffffffffffffffffffffffff16815260200190815260200160002081908060018154018082558091505060019003906000526020600020906002020160009091909190915060008201518160000190805190602001906102d19291906102f6565b5060208201518160010190805190602001906102ee9291906102f6565b505050505050565b8280546103029061068d565b90600052602060002090601f016020900481019282610324576000855561036b565b82601f1061033d57805160ff191683800117855561036b565b8280016001018555821561036b579182015b8281111561036a57825182559160200191906001019061034f565b5b509050610378919061037c565b5090565b5b8082111561039557600081600090555060010161037d565b5090565b60006103ac6103a7846105c6565b610595565b9050828152602081018484840111156103c457600080fd5b6103cf84828561064b565b509392505050565b600082601f8301126103e857600080fd5b81356103f8848260208601610399565b91505092915050565b6000806040838503121561041457600080fd5b600083013567ffffffffffffffff81111561042e57600080fd5b61043a858286016103d7565b925050602083013567ffffffffffffffff81111561045757600080fd5b610463858286016103d7565b9150509250929050565b6000610479838361052f565b905092915050565b600061048c82610606565b6104968185610629565b9350836020820285016104a8856105f6565b8060005b858110156104e457848403895281516104c5858261046d565b94506104d08361061c565b925060208a019950506001810190506104ac565b50829750879550505050505092915050565b600061050182610611565b61050b818561063a565b935061051b81856020860161065a565b6105248161071d565b840191505092915050565b6000604083016000830151848203600086015261054c82826104f6565b9150506020830151848203602086015261056682826104f6565b9150508091505092915050565b6000602082019050818103600083015261058d8184610481565b905092915050565b6000604051905081810181811067ffffffffffffffff821117156105bc576105bb6106ee565b5b8060405250919050565b600067ffffffffffffffff8211156105e1576105e06106ee565b5b601f19601f8301169050602081019050919050565b6000819050602082019050919050565b600081519050919050565b600081519050919050565b6000602082019050919050565b600082825260208201905092915050565b600082825260208201905092915050565b82818337600083830152505050565b60005b8381101561067857808201518184015260208101905061065d565b83811115610687576000848401525b50505050565b600060028204905060018216806106a557607f821691505b602082108114156106b9576106b86106bf565b5b50919050565b7f4e487b7100000000000000000000000000000000000000000000000000000000600052602260045260246000fd5b7f4e487b7100000000000000000000000000000000000000000000000000000000600052604160045260246000fd5b6000601f19601f830116905091905056fea2646970667358221220663d52797b334a37051a07d7e216322f47f976f92443e2ebbd634b7554015fad64736f6c63430008000033",
  "immutableReferences": {},
  "source": "// SPDX-License-Identifier: MIT \r\npragma solidity ^0.8.0;\r\n\r\ncontract FileStorage {\r\n\r\n    struct File {\r\n        string name;\r\n        string hash;\r\n    }\r\n\r\n    mapping(address => File[]) userFile; \r\n\r\n    function uploadFile(string memory _name, string memory _hash) public payable {\r\n        File memory file = File(_name, _hash);\r\n        userFile[msg.sender].push(file);\r\n    }\r\n\r\n    function getFile() public view returns(File[] memory) {\r\n        return userFile[msg.sender];\r\n    } \r\n\r\n}",
  "sourcePath": "E:\\filestorage-web3\\contracts\\FileStorage.sol",
  "compiler": {
    "name": "solc",
    "version": "0.8.0+commit.c7dfd78e.Emscripten.clang"
  },
  "schemaVersion": "3.4.16",
  "updatedAt": "2024-10-16T06:16:11.125Z",
  "networkType": "ethereum",
  "devdoc": {
    "kind": "dev",
    "methods": {},
    "version": 1
  },
  "userdoc": {
    "kind": "user",
    "methods": {},
    "version": 1
  }
}